{
  "contractName": "SalaryEasyPay",
  "abi": [
    {
      "constant": true,
      "inputs": [],
      "name": "employee",
      "outputs": [
        {
          "name": "",
          "type": "address"
        }
      ],
      "payable": false,
      "stateMutability": "view",
      "type": "function"
    },
    {
      "constant": true,
      "inputs": [],
      "name": "employer",
      "outputs": [
        {
          "name": "",
          "type": "address"
        }
      ],
      "payable": false,
      "stateMutability": "view",
      "type": "function"
    },
    {
      "inputs": [
        {
          "name": "_employee",
          "type": "address"
        },
        {
          "name": "_salary",
          "type": "uint256"
        },
        {
          "name": "_payPeriod",
          "type": "uint256"
        }
      ],
      "payable": true,
      "stateMutability": "payable",
      "type": "constructor"
    },
    {
      "constant": false,
      "inputs": [],
      "name": "paySalary",
      "outputs": [],
      "payable": true,
      "stateMutability": "payable",
      "type": "function"
    },
    {
      "constant": false,
      "inputs": [],
      "name": "getSalary",
      "outputs": [],
      "payable": false,
      "stateMutability": "nonpayable",
      "type": "function"
    },
    {
      "constant": true,
      "inputs": [],
      "name": "salaryShouldPay",
      "outputs": [
        {
          "name": "amount",
          "type": "uint256"
        }
      ],
      "payable": false,
      "stateMutability": "view",
      "type": "function"
    },
    {
      "constant": true,
      "inputs": [],
      "name": "showDeposit",
      "outputs": [
        {
          "name": "amount",
          "type": "uint256"
        }
      ],
      "payable": false,
      "stateMutability": "view",
      "type": "function"
    },
    {
      "constant": true,
      "inputs": [],
      "name": "showSalary",
      "outputs": [
        {
          "name": "amount",
          "type": "uint256"
        }
      ],
      "payable": false,
      "stateMutability": "view",
      "type": "function"
    },
    {
      "constant": true,
      "inputs": [],
      "name": "showPayPeriod",
      "outputs": [
        {
          "name": "amount",
          "type": "uint256"
        }
      ],
      "payable": false,
      "stateMutability": "view",
      "type": "function"
    }
  ],
  "bytecode": "0x60806040526040516060806107588339810180604052606081101561002357600080fd5b81019080805190602001909291908051906020019092919080519060200190929190505050336000806101000a81548173ffffffffffffffffffffffffffffffffffffffff021916908373ffffffffffffffffffffffffffffffffffffffff16021790555082600160006101000a81548173ffffffffffffffffffffffffffffffffffffffff021916908373ffffffffffffffffffffffffffffffffffffffff160217905550816002819055508160030234101515156100e257600080fd5b3460038190555080600481905550603c810242016005819055506000600660006101000a81548160ff02191690831515021790555050505061062f806101296000396000f3fe60806040526004361061008e576000357c0100000000000000000000000000000000000000000000000000000000900463ffffffff1680630f391183146100935780634a34b521146100be5780634f06ae8e146100e957806358b08d2e146101145780635b3a343c1461012b578063a0a1a7d714610156578063a5708f94146101ad578063ae200e79146101b7575b600080fd5b34801561009f57600080fd5b506100a861020e565b6040518082815260200191505060405180910390f35b3480156100ca57600080fd5b506100d3610296565b6040518082815260200191505060405180910390f35b3480156100f557600080fd5b506100fe61039e565b6040518082815260200191505060405180910390f35b34801561012057600080fd5b506101296103c9565b005b34801561013757600080fd5b50610140610503565b6040518082815260200191505060405180910390f35b34801561016257600080fd5b5061016b61052e565b604051808273ffffffffffffffffffffffffffffffffffffffff1673ffffffffffffffffffffffffffffffffffffffff16815260200191505060405180910390f35b6101b5610554565b005b3480156101c357600080fd5b506101cc6105de565b604051808273ffffffffffffffffffffffffffffffffffffffff1673ffffffffffffffffffffffffffffffffffffffff16815260200191505060405180910390f35b6000600160009054906101000a900473ffffffffffffffffffffffffffffffffffffffff1673ffffffffffffffffffffffffffffffffffffffff163373ffffffffffffffffffffffffffffffffffffffff1614151561026c57600080fd5b60001515600660009054906101000a900460ff16151514151561028e57600080fd5b600354905090565b60008060009054906101000a900473ffffffffffffffffffffffffffffffffffffffff1673ffffffffffffffffffffffffffffffffffffffff163373ffffffffffffffffffffffffffffffffffffffff161415156102f357600080fd5b60001515600660009054906101000a900460ff16151514151561031557600080fd5b600554421115610375576003546002546004603c60045402600554420381151561033b57fe5b040102111561036b576003546002546004603c60045402600554420381151561036057fe5b040102039050610370565b600090505b61039b565b60035460025460030211156103955760035460025460030203905061039a565b600090505b5b90565b6000801515600660009054906101000a900460ff1615151415156103c157600080fd5b600254905090565b600160009054906101000a900473ffffffffffffffffffffffffffffffffffffffff1673ffffffffffffffffffffffffffffffffffffffff163373ffffffffffffffffffffffffffffffffffffffff1614151561042557600080fd5b6005544211151561043557600080fd5b60001515600660009054906101000a900460ff16151514151561045757600080fd5b6000600254600302600354101515610490576002549050603c6004540260055401600581905550600254600354036003819055506104b9565b6001600660006101000a81548160ff021916908315150217905550600354905060006003819055505b3373ffffffffffffffffffffffffffffffffffffffff166108fc829081150290604051600060405180830381858888f193505050501580156104ff573d6000803e3d6000fd5b5050565b6000801515600660009054906101000a900460ff16151514151561052657600080fd5b600454905090565b600160009054906101000a900473ffffffffffffffffffffffffffffffffffffffff1681565b6000809054906101000a900473ffffffffffffffffffffffffffffffffffffffff1673ffffffffffffffffffffffffffffffffffffffff163373ffffffffffffffffffffffffffffffffffffffff161415156105af57600080fd5b60001515600660009054906101000a900460ff1615151415156105d157600080fd5b3460035401600381905550565b6000809054906101000a900473ffffffffffffffffffffffffffffffffffffffff168156fea165627a7a7230582040d8a6db0f36ca2953822fcd0a113981791016f199d9bd7259b186a8c58bd9a90029",
  "source": "pragma solidity > 0.4.18 < 0.5.1;\ncontract SalaryEasyPay {\n\taddress public employer;\n\taddress public employee;\n\t\n\tuint private salary;\n\tuint private salaryDeposit;\n\n\tuint payPeriod;\n\tuint payday;\n\n\tbool private isDestroyed;\n\n\tmodifier onlyEmployer () \n\t{\n\t\trequire(msg.sender == employer);\n\t\t_;\n\t}\n\n\tmodifier onlyEmployee () \n\t{\n\t\trequire(msg.sender == employee);\n\t\t_;\n\t}\t\n\n\tmodifier onlyAfterWeek () // 一个周之后才能领工资\n\t{\n\t\trequire(now > payday);\n\t\t_;\n\t}\n\n\tmodifier notDestroyed () \n\t{\n\t\trequire(isDestroyed == false);\n\t\t_;\n\t}\n\n\tconstructor (address _employee, uint _salary, uint _payPeriod) \n\t\tpublic \n\t\tpayable\n\t{\n\t\temployer = msg.sender;\n\t\temployee = _employee;\n\n\t\tsalary = _salary;\n\t\t// 这是一个策略问题，雇佣者需要提前存入一定的资金到合约中，他可以存两个week的工资，或者是三个week，\n\t\t// 如果他违约不给工资，那么预存的这几个week工资将转给员工，然后禁用合约，作为惩罚。\n\t\t// 下一次重新创建合约雇佣者又需要重新预存工资，所以这样保证雇主按时按量交付工资，否则将一直接受惩罚。\n\t\t\n\t\t// 同时如果公司开除员工的话可以不再向合约存钱，那么合约将自动禁用，非常方便\n\t\t// （当然开除员工有必要付给员工一定工资，以便员工能够在重新找到工作之前保证自身生存,这是非常人性化的）。\n\t\trequire(msg.value >= 3*_salary); // 数字3可以根据策略进行更改\n\t\tsalaryDeposit = msg.value;\n\n\t\tpayPeriod = _payPeriod;\n\t\tpayday = now + _payPeriod*1 minutes; // 一个周之后才能领工资\n\n\t\tisDestroyed = false;\n\t}\n\n\tfunction paySalary()\n\t\tpublic\n\t\tpayable\n\t\tonlyEmployer()\n\t\tnotDestroyed()\n\t{\n\t\tsalaryDeposit = salaryDeposit + msg.value;\n\t}\n\n\tfunction getSalary () \n\t\tpublic\n\t\tonlyEmployee()\n\t\tonlyAfterWeek()\n\t\tnotDestroyed()\n\t{\n\t    uint amount;\n\t    \n\t\tif (salaryDeposit >= 3*salary) {\n\t\t\tamount = salary;\n\n\t\t\tpayday = payday + payPeriod*1 minutes; // 一个周之后才能领工资\n\t\t\t\n\t\t\tsalaryDeposit = salaryDeposit - salary;\n\t\t} else { \n\t\t\t// 禁用合约，作为惩罚,预存的这几个week工资将转给员工\n\t\t\tisDestroyed = true;\n\n\t\t\tamount = salaryDeposit;\n\n\t\t\tsalaryDeposit = 0;\n\t\t}\n\t\tmsg.sender.transfer(amount);\n\t}\n\n\tfunction salaryShouldPay ()\n\t\tpublic view\n\t\tonlyEmployer()\n\t\tnotDestroyed()\n\t\treturns (uint amount)\n\t{\n\t\tif (now > payday) {\n\t\t    if ((uint((now - payday) / (payPeriod*1 minutes)) + 4) * salary > salaryDeposit) {\n\t\t        amount = (uint((now - payday) / (payPeriod*1 minutes)) + 4) * salary - salaryDeposit;\n\t\t    } else {\n\t\t        amount = 0;\n\t\t    }\n\t\t} else {\n\t\t    if (3 * salary > salaryDeposit) {\n                amount = 3 * salary - salaryDeposit;\n\t\t    } else {\n\t\t        amount = 0;\n\t\t    }\n\t\t}\n\t}\n\n\tfunction showDeposit ()\n\t\tpublic view\n\t\tonlyEmployee()\n\t\tnotDestroyed()\n\t\treturns (uint amount)\n\t{\n\t\tamount = salaryDeposit;\n\t}\n\n\tfunction showSalary ()\n\t\tpublic view\n\t\tnotDestroyed()\n\t\treturns (uint amount)\n\t{\n\t\tamount = salary;\n\t}\n\n\tfunction showPayPeriod ()\n\t\tpublic view\n\t\tnotDestroyed()\n\t\treturns (uint amount)\n\t{\n\t\tamount = payPeriod;\n\t}\n}",
  "sourcePath": "/home/ousuixin/Desktop/SalaryEasyPay-employer/contracts/SalaryEasyPay.sol",
  "compiler": {
    "name": "solc",
    "version": "0.5.0+commit.1d4f565a.Emscripten.clang"
  },
  "schemaVersion": "3.0.0",
  "updatedAt": "2018-12-29T05:04:47.203Z",
  "devdoc": {
    "methods": {}
  },
  "userdoc": {
    "methods": {}
  }
}